:020000040800F2
:1000000000000220E51C0008D1070008D307000803
:10001000D5070008D7070008D9070008000000002E
:10002000000000000000000000000000DB070008E6
:10003000DD07000800000000DF070008E1070008F6
:10004000351D0008351D0008351D0008351D000848
:10005000351D0008351D0008351D0008351D000838
:10006000351D0008351D0008351D0008351D000828
:10007000351D0008351D0008351D0008351D000818
:10008000351D0008351D0008351D0008351D000808
:10009000351D0008351D0008351D0008351D0008F8
:1000A000351D0008351D0008351D0008351D0008E8
:1000B000351D0008351D0008351D0008351D0008D8
:1000C000351D0008351D0008351D0008351D0008C8
:1000D000351D0008351D0008351D0008351D0008B8
:1000E000351D0008351D0008351D0008351D0008A8
:1000F000351D0008351D0008351D0008351D000898
:10010000351D0008351D0008351D0008351D000887
:10011000351D0008351D0008351D0008351D000877
:10012000351D0008351D0008351D0008351D000867
:10013000351D00080000000000000000351D00080B
:10014000351D0008351D0008351D0008351D000847
:10015000351D0008351D0008351D0008351D000837
:10016000351D0008351D0008351D0008351D000827
:10017000351D0008351D0008351D00080000000071
:1001800000000000351D0008000000000000000015
:10019000351D00080000000000000000351D0008AB
:1001A000000000000000000000000000351D0008F5
:1001B000351D0008351D0008351D0008351D0008D7
:0401C000351D0008E1
:1001C40010B5054C237833B9044B13B10448AFF38D
:1001D40000800123237010BD0C00002000000000EB
:1001E400901D000808B5034B1BB103490348AFF346
:1001F400008008BD0000000010000020901D0008D1
:1002040053B94AB9002908BF00281CBF4FF0FF3179
:100214004FF0FF3000F074B9ADF1080C6DE904CE75
:1002240000F006F8DDF804E0DDE9022304B07047CD
:100234002DE9F047089D04468E46002B4DD18A4295
:10024400944669D9B2FA82F252B101FA02F3C2F1C8
:10025400200120FA01F10CFA02FC41EA030E944059
:100264004FEA1C48210CBEFBF8F61FFA8CF708FB7A
:1002740016E341EA034306FB07F199420AD91CEB52
:10028400030306F1FF3080F01F81994240F21C8184
:10029400023E63445B1AA4B2B3FBF8F008FB1033CC
:1002A40044EA034400FB07F7A7420AD91CEB040401
:1002B40000F1FF3380F00A81A74240F207816444D1
:1002C400023840EA0640E41B00261DB1D440002356
:1002D400C5E900433146BDE8F0878B4209D9002DBA
:1002E40000F0EF800026C5E9000130463146BDE844
:1002F400F087B3FA83F6002E4AD18B4202D38242AE
:1003040000F2F980841A61EB030301209E46002D5C
:10031400E0D0C5E9004EDDE702B9FFDEB2FA82F2B1
:10032400002A40F09280A1EB0C014FEA1C471FFA0F
:100334008CFE0126200CB1FBF7F307FB131140EAF6
:1003440001410EFB03F0884208D91CEB010103F1C3
:10035400FF3802D2884200F2CB804346091AA4B285
:10036400B1FBF7F007FB101144EA01440EFB00FE59
:10037400A64508D91CEB040400F1FF3102D2A645BE
:1003840000F2BB800846A4EB0E0440EA03409CE75D
:10039400C6F12007B34022FA07FC4CEA030C20FA0A
:1003A40007F401FA06F31C43F9404FEA1C4900FA2A
:1003B40006F3B1FBF9F8200C1FFA8CFE09FB1811A7
:1003C40040EA014108FB0EF0884202FA06F20BD91A
:1003D4001CEB010108F1FF3A80F08880884240F26A
:1003E4008580A8F102086144091AA4B2B1FBF9F0AE
:1003F40009FB101144EA014100FB0EFE8E4508D9A9
:100404001CEB010100F1FF346CD28E456AD902382D
:10041400614440EA0840A0FB0294A1EB0E01A14212
:10042400C846A64656D353D05DB1B3EB080261EB80
:100434000E0101FA07F722FA06F3F1401F43C5E95A
:10044400007100263146BDE8F087C2F12003D84090
:100454000CFA02FC21FA03F3914001434FEA1C47D2
:100464001FFA8CFEB3FBF7F007FB10360B0C43EAC4
:10047400064300FB0EF69E4204FA02F408D91CEB74
:10048400030300F1FF382FD29E422DD90238634472
:100494009B1B89B2B3FBF7F607FB163341EA034112
:1004A40006FB0EF38B4208D91CEB010106F1FF3861
:1004B40016D28B4214D9023E6144C91A46EA004658
:1004C40038E72E46284605E70646E3E61846F8E6EA
:1004D4004B45A9D2B9EB020864EB0C0E0138A3E733
:1004E4004646EAE7204694E74046D1E7D0467BE714
:1004F400023B614432E7304609E76444023842E78C
:10050400704700BF00B58BB0002205920692079297
:100514000892099201921A4B196B41F00401196374
:10052400196B01F00401019101990292196B41F0D8
:1005340080011963196B01F0800102910299039201
:10054400196B41F001011963196B01F00101039169
:10055400039904921A6B42F002021A631B6B03F0B4
:1005640002030493049B4FF4005305934FF40413C4
:10057400069305A9034801F041F90BB05DF804FBAB
:10058400003802400008024072B6FEE708B50A4887
:100594000A4B03604FF4E133436000238360C3607C
:1005A40003610C2242618361C36101F05FFB00B906
:1005B40008BDFFF7E9FF00BFB80000200044004079
:1005C40000B587B00023029303930493059300932B
:1005D40001931348134A02604360836040F6692222
:1005E400C26003614361836100F0EEFA90B94FF495
:1005F4008053029302A90A4800F0F1FB60B900237A
:10060400009301936946064800F0FAFC30B907B03C
:100614005DF804FBFFF7B8FFFFF7B6FFFFF7B4FF81
:10062400280000200000014000B58FB000230A9389
:100634000B930C930D9308930993019302930393E3
:1006440004930593069307931E484FF0804202607B
:100654004360836040F66922C26003618023836142
:1006640000F0B2FA20BB4FF480530A930AA915484C
:1006740000F0B5FBF0B9134800F0D2FAE0B900235A
:100684000893099308A90F4800F0BAFCB0B9602395
:100694000193002202920392059201A9094800F0F5
:1006A40023FB68B9074800F005F90FB05DF804FBB7
:1006B400FFF76AFFFFF768FFFFF766FFFFF764FFC6
:1006C400FFF762FF7000002000B595B034220021CE
:1006D40007A801F053FB00230293039304930593AB
:1006E400069300931F4A116C41F080511164126CFF
:1006F40002F080520092009A01931B490A6822F486
:10070400404242F480420A600A6802F44042019284
:10071400019A0222079201210A9110210B910D9254
:100724000E9308230F935023109311921292139255
:1007340007A800F041FE80B90F2302930221039120
:10074400002304934FF480520592069302A800F00C
:100754009DFC20B915B05DF804FBFFF715FFFFF70A
:1007640013FF00BF003802400070004038B501F0AC
:10077400B5F9FFF7A9FFFFF7C5FEFFF707FFFFF77E
:100784001FFFFFF751FF0F4B60221A6000229A608F
:10079400DA601A615A619A6112E00A494C600A4DA2
:1007A4000022284600F0A0FA0021284600F0A6FB0B
:1007B400052001F0BFF9013440F669239C42ECDDC9
:1007C4000024F9E7FC00002070000020FEE7FEE7AB
:1007D400FEE7FEE7FEE770477047704708B501F093
:1007E40097F908BD00B583B0002100910C4B5A6CF9
:1007F40042F480425A645A6C02F480420092009A95
:1008040001911A6C42F080521A641B6C03F08053FD
:100814000193019B072001F0DDF803B05DF804FBB0
:100824000038024000B589B0002303930493059374
:100834000693079303681C4A934205D0B3F1804F93
:1008440024D009B05DF804FB00210091174B5A6CC9
:1008540042F001025A645A6C02F001020092009ABA
:1008640001911A6B42F001021A631B6B03F001033E
:100874000193019B4FF48073039302230493012398
:10088400079303A90A4800F0B9FFDAE700230293AB
:10089400064B1A6C42F001021A641B6C03F001034C
:1008A4000293029BCDE700BF0000014000380240E4
:1008B4000000024000B587B0002301930293039324
:1008C400049305930368B3F1804F02D007B05DF839
:1008D40004FB002300930A4B1A6B42F001021A63D3
:1008E4001B6B03F001030093009B2023019302235D
:1008F40002930123059301A9024800F07FFFE5E775
:10090400003802400000024000B589B00023039380
:1009140004930593069307930268154B9A4202D0F9
:1009240009B05DF804FB0021019103F5FA331A6C58
:1009340042F400321A641A6C02F400320192019AF1
:1009440002911A6B42F001021A631B6B03F001035C
:100954000293029B0C230393022304930323069321
:100964000723079303A9034800F048FFD8E700BF13
:10097400004400400000024030B4036A23F0010345
:100984000362036A4268846924F073040D682C438B
:1009940023F0020C8B6843EA0C03104DA84203D0E9
:1009A40005F58065A84205D123F00803CD682B43E3
:1009B40023F00403094DA84203D005F58065A8423D
:1009C40005D122F440724D692A438D692A4342605D
:1009D40084614A684263036230BC7047000001408E
:1009E40030B4036A23F480730362036A4268C469FF
:1009F40024F0730C0C6844EA0C0523F400738C682F
:100A040043EA0423114CA04203D004F58064A042BD
:100A140006D123F40063CC6843EA042323F48063FF
:100A24000A4CA04203D004F58064A04207D122F40A
:100A340040524C6942EA04128C6942EA0412426050
:100A4400C5614A68C263036230BC7047000001405C
:100A540030B4036A23F480530362036A4468C269AE
:100A640022F4E6420D6842EA052223F400538D681D
:100A740043EA0533094DA84203D005F58065A84231
:100A840004D124F480444D6944EA85144460C2616D
:100A94004A680264036230BC704700BF0000014032
:100AA40010B4036A046A24F001040462846924F023
:100AB400F00C4CEA021223F00A030B438261036236
:100AC4005DF8044B704710B4046A24F01004046207
:100AD4008469036A24F4704C4CEA023223F0A003C4
:100AE40043EA0113826103625DF8044B7047836833
:100AF40023F070030B4343F0070383607047704790
:100B04000368304A904212D0B0F1804F0FD0A2F562
:100B14007C4290420BD002F58062904207D002F5ED
:100B24008062904203D002F57842904203D123F0D0
:100B340070034A681343234A90422AD0B0F1804F8D
:100B440027D0A2F57C42904223D002F580629042E5
:100B54001FD002F5806290421BD002F57842904289
:100B640017D002F57052904213D002F58062904281
:100B74000FD002F5806290420BD0A2F598329042D9
:100B840007D002F58062904203D002F58062904261
:100B940003D123F44073CA68134323F080034A69E2
:100BA400134303608B68C3620B688362054B9842EE
:100BB40003D003F58063984201D10B6903630123D9
:100BC400436170470000014040B310B5044690F8FB
:100BD4003D30F3B1022384F83D30214651F8040B33
:100BE400FFF78EFF012384F8463084F83E3084F802
:100BF4003F3084F8403084F8413084F8423084F83F
:100C0400433084F8443084F8453084F83D30002083
:100C140010BD80F83C30FFF705FEDBE7012070478C
:100C240040B310B5044690F83D30F3B1022384F884
:100C34003D30214651F8040BFFF762FF012384F88D
:100C4400463084F83E3084F83F3084F8403084F8ED
:100C5400413084F8423084F8433084F8443084F8D6
:100C6400453084F83D30002010BD80F83C30FFF75B
:100C740046FFDBE70120704730B4036A23F010031A
:100C84000362036A4468826922F4E6420D6842EA18
:100C9400052223F020038D6843EA0513114DA84271
:100CA40003D005F58065A84206D123F08003CD6802
:100CB40043EA051323F040030A4DA84203D005F587
:100CC4008065A84207D124F440644D6944EA850450
:100CD4008D6944EA8504446082614A6882630362E0
:100CE40030BC70470000014038B590F83C30012B0F
:100CF40066D004460D46012380F83C300C2A5AD8AD
:100D0400DFE802F0075959591B59595930595959B3
:100D140044000068FFF730FE2268936943F008033B
:100D240093612268936923F00403936122689369B1
:100D340029690B43936100203EE00068FFF79CFFA4
:100D44002268936943F4006393612268936923F4EE
:100D54008063936122689369296943EA012393615B
:100D6400002029E00068FFF73BFE2268D36943F0C6
:100D74000803D3612268D36923F00403D361226892
:100D8400D36929690B43D361002015E00068FFF79C
:100D94005FFE2268D36943F40063D3612268D36998
:100DA40023F48063D3612268D369296943EA012368
:100DB400D361002000E00120002384F83C3038BDDA
:100DC4000220FCE710B4846824F47F4C42EA032236
:100DD4000A4342EA0C0282605DF8044B704790F8C3
:100DE4003C30012B78D010B50446012380F83C3008
:100DF400022380F83D300268936823F47F4323F094
:100E0400770393600B68602B4CD029D8402B54D0C7
:100E14000CD9502B22D1CA6849680068FFF740FEFC
:100E240050212068FFF763FE002005E0202B0DD041
:100E340009D9302B0AD00120012384F83D30002346
:100E440084F83C3010BD0BB1102B05D11946206835
:100E5400FFF74DFE0020EFE70120EDE70120EBE76F
:100E6400B3F5805F34D0B3F5005F0CD1CB684A682A
:100E740089680068FFF7A6FF2268936843F48043FB
:100E840093600020D8E7702B24D1CB684A68896826
:100E94000068FFF797FF2268936843F07703936035
:100EA4000020C9E7CA6849680068FFF70CFE6021A2
:100EB4002068FFF71CFE0020BEE7CA684968006886
:100EC400FFF7EEFD40212068FFF711FE0020B3E795
:100ED4000020B1E70120AFE70220704701F01F01B5
:100EE400012303FA01FC036A23EA0C030362036A85
:100EF40002FA01F10B4303627047000010B5044687
:100F04000846002942D194F83E30DBB2013B18BFB9
:100F14000123002B6ED1002851D1022384F83E30E6
:100F2400012201462068FFF7D9FF2368334A934220
:100F340003D002F58062934203D15A6C42F400421A
:100F44005A6423682D4A934249D0B3F1804F46D066
:100F5400A2F57C42934242D002F5806293423ED095
:100F640002F5806293423AD002F57842934236D039
:100F740002F57052934232D0A2F5943293422ED0AD
:100F84001A6842F001021A60002032E0042908D0F5
:100F940008290DD094F84130DBB2013B18BF01237E
:100FA400B7E794F83F30DBB2013B18BF0123B0E749
:100FB40094F84030DBB2013B18BF0123A9E70428B1
:100FC40005D0082807D0022384F84130A8E702237B
:100FD40084F83F30A4E7022384F84030A0E79A68FD
:100FE40002F00702062A07D01A6842F001021A60CA
:100FF400002010BD0120FCE70020FAE700000140BA
:1010040090F83C30012B3DD010B4012380F83C30E3
:10101400022380F83D3003685A689C6822F0700C03
:101024000A6842EA0C025A600368174A93421AD0CB
:10103400B3F1804F17D0A2F57C42934213D002F54E
:10104400806293420FD002F5806293420BD002F586
:101054007842934207D002F57052934203D0A2F52E
:101064009432934204D124F080044A6814439C606F
:10107400012380F83D30002380F83C3018465DF8A9
:10108400044B70470220704700000140002800F024
:101094009B8070B50D4604464F4B1B6803F00F034D
:1010A4008B4208D2CBB24C4A1370136803F00F037F
:1010B4008B4240F08B80236813F0020F17D013F09B
:1010C400040F04D0454A936843F4E05393602368C3
:1010D40013F0080F04D0414A936843F460439360CB
:1010E4003E4A936823F0F003A1680B43936023689E
:1010F40013F0010F32D06368012B21D09A1E012A0C
:1011040025D9364A126812F0020F61D033498A6831
:1011140022F0030213438B6000F006FD06462F4BBA
:101124009B6803F00C036268B3EB820F16D000F0E7
:10113400FBFC801B41F288339842F0D9032042E043
:10114400264A126812F4003FE0D101203BE0234A12
:10115400126812F0007FD9D1012034E01E4B1B68C5
:1011640003F00F03AB4207D9EAB21B4B1A701B689A
:1011740003F00F03AB422DD1236813F0040F06D004
:10118400164A936823F4E053E1680B4393602368A1
:1011940013F0080F07D0114A936823F460432169C0
:1011A40043EAC103936000F047F80C4B9B68C3F318
:1011B40003130B4AD35CD8400A4B18600A4B1868D7
:1011C40000F066FC002070BD012070470120FAE7A2
:1011D4000120F8E70120F6E7003C02400038024015
:1011E400A81D00080800002004000020014B186816
:1011F400704700BF0800002008B5FFF7F7FF044B55
:101204009B68C3F38223034AD35CD84008BD00BF64
:1012140000380240B81D000808B5FFF7E7FF044B8B
:101224009B68C3F34233034AD35CD84008BD00BF74
:1012340000380240B81D000808B55C4B9B6803F0F9
:101244000C03082B07D00C2B5BD0042B01D058487F
:1012540008BD5848FCE7554B5A6802F03F025B68EA
:1012640013F4800F2AD0514B5968C1F3881C4FEAFC
:101274004C11B1EB0C006EEB0E0E4FEA8E1343EAE9
:1012840090638101091A63EB0E03DB0043EA517397
:10129400C90011EB0C0C43F10003590200234FEA7F
:1012A4004C2041EADC51FEF7ABFF404B5B68C3F3D3
:1012B400014301335B00B0FBF3F0C9E73B4B5968D2
:1012C400C1F3881C4FEA4C11B1EB0C006EEB0E0E0F
:1012D4004FEA8E1343EA90638101091A63EB0E030C
:1012E400DB0043EA5173C90011EB0C0C43F100031A
:1012F400990200234FEA8C2041EA9C51FEF780FFBB
:10130400D3E72A4B5A6802F03F025B6813F4800F5C
:1013140028D0264B5968C1F3881C4FEA4C11B1EB15
:101324000C006EEB0E0E4FEA8E1343EA90638101BC
:10133400091A63EB0E03DB0043EA5173C90011EB96
:101344000C0C43F10003590200234FEA4C2041EAFC
:10135400DC51FEF755FF154B5B68C3F30273B0FB1A
:10136400F3F075E7114B5968C1F3881C4FEA4C112F
:10137400B1EB0C006EEB0E0E4FEA8E1343EA906352
:101384008101091A63EB0E03DB0043EA5173C900C0
:1013940011EB0C0C43F10003990200234FEA8C205B
:1013A40041EA9C51FEF72CFFD5E700BF003802400C
:1013B4000024F40000127A00002800F0018270B5C5
:1013C40082B00446036813F0010F41D0994B9B6827
:1013D40003F00C03042B32D0964B9B6803F00C03F0
:1013E400082B27D0934B9B6803F00C030C2B59D08C
:1013F4006368B3F5803F5BD0B3F5A02F5ED08D4B0F
:101404001A6822F480321A601A6822F480221A6060
:101414006368002B5CD000F087FB0546854B1B6896
:1014240013F4003F14D100F07FFB401B6428F5D96E
:101434000320CCE17F4B5B6813F4800FD2D07D4B4B
:101444001B6813F4003F03D06368002B00F0BA81DB
:10145400236813F0020F60D0764B9B6813F00C0FD7
:101464004AD0744B9B6803F00C03082B3FD0714B9C
:101474009B6803F00C030C2B69D0E368002B75D038
:101484006D4B01221A6000F04FFB0546694B1B6847
:1014940013F0020F61D100F047FB401B0228F5D97D
:1014A400032094E1634B5B6813F4800FA0D0C6E77C
:1014B400604A136843F480331360A9E75D4B1A68EC
:1014C40042F480221A601A6842F480321A609FE75C
:1014D40000F02AFB0546574B1B6813F4003FB7D0B6
:1014E40000F022FB401B6428F5D903206FE1514B27
:1014F4005B6813F4800FBAD14E4B1B6813F0020FD4
:1015040003D0E368012B40F05F814A4A136823F05B
:10151400F803216943EAC1031360236813F0080F39
:1015240049D06369002B33D0434B0122C3F8802E8A
:1015340000F0FAFA05463F4B5B6F13F0020F3AD105
:1015440000F0F2FA401B0228F5D903203FE1394BA1
:101554005B6813F4800F90D1CEE7364A136823F00A
:10156400F803216943EAC1031360D6E7324B002232
:101574001A6000F0D9FA05462E4B1B6813F0020FCF
:10158400CBD000F0D1FA401B0228F5D903201EE18C
:10159400294B0022C3F8802E00F0C6FA0546254BDD
:1015A4005B6F13F0020F06D000F0BEFA401B022856
:1015B400F5D903200BE1236813F0040F76D01D4BFB
:1015C4001B6C13F0805F33D100230193194B1A6C09
:1015D40042F080521A641B6C03F080530193019B08
:1015E4000125164B1B6813F4807F29D0A368012BB7
:1015F4003AD0052B3ED00F4B1A6F22F001021A6726
:101604001A6F22F004021A67A368002B3CD000F082
:101614008BFA0646074B1B6F13F0020F45D100F0FF
:1016240083FA801B41F288339842F3D90320CEE039
:101634000025D6E700380240000047420070004011
:101644006B4A136843F48073136000F06DFA064626
:10165400674B1B6813F4807FC8D100F065FA801BC8
:101664000228F5D90320B2E0624A136F43F0010364
:101674001367C9E75F4B1A6F42F004021A671A6FC7
:1016840042F001021A67BFE700F04EFA0646594BD2
:101694001B6F13F0020F08D000F046FA801B41F2D2
:1016A40088339842F3D9032091E0EDB9A369002B64
:1016B40000F08C804F4A926802F00C02082A54D041
:1016C400022B17D04C4B00221A6600F02DFA044668
:1016D400484B1B6813F0007F45D000F025FA001B2F
:1016E4000228F5D9032072E0424A136C23F0805398
:1016F4001364DBE7404B00221A6600F015FA054636
:101704003C4B1B6813F0007F06D000F00DFA401B21
:101714000228F5D903205AE0E369226A1343626A76
:1017240043EA8213A26A5208013A43EA0243E26A94
:1017340043EA0263226B43EA02732E4A53602E4B40
:1017440001221A6600F0F0F904462A4B1B6813F0D4
:10175400007F06D100F0E8F9001B0228F5D9032028
:1017640035E0002033E0002031E0012B31D0214B63
:101774005B6803F48001E26991422CD103F03F02DB
:10178400216A8A4229D1616A47F6C0721A40B2EBD3
:10179400811F24D103F44031A26A5208013AB1EB0B
:1017A400024F1ED103F07062E16AB2EB016F1AD1ED
:1017B40003F0E043226BB3EB027F16D1002006E076
:1017C40001207047012002E0012000E0002002B067
:1017D40070BD0120FBE70120F9E70120F7E70120B4
:1017E400F5E70120F3E70120F1E70120EFE700BF6F
:1017F40000700040003802400000474200230F2BD5
:1018040000F2DE8070B582B060E085685E0003247B
:10181400B44025EA0405CC68B4402C438460456890
:1018240025EA02054C68C4F300129A402A43426038
:101834005AE0DC08083450F8246003F007029500ED
:101844000F22AA4026EA020E0A69AA4042EA0E02C0
:1018540040F824205CE0062200E0002202FA0EF2A6
:101864002A430234574D45F82420574A14686FEA36
:101874000C0224EA0C054E6816F4803F01D04CEAB1
:101884000405514C2560646802EA04054E6816F4A8
:10189400003F01D04CEA04054B4C6560A46802EAA1
:1018A40004054E6816F4801F01D04CEA0405464C2A
:1018B400A560E46822404D6815F4001F01D04CEA8D
:1018C4000402414CE26001330F2B77D801229A4085
:1018D4000C6804EA020C32EA0404F4D14C6804F003
:1018E4000304013C012C90D94A6802F00302032A44
:1018F40009D0C4685D000322AA4024EA02048A686D
:10190400AA402243C2604A6802F00302022A90D02D
:1019140004684FEA430E032202FA0EF224EA020498
:101924004A6802F0030202FA0EF2224302604A6895
:1019340012F4403FC7D000220192244A546C44F46C
:1019440080445464526C02F480420192019A9C08CF
:10195400A51C1C4A52F8255003F003024FEA820EDC
:101964000F2202FA0EF225EA0205194A90423FF4C8
:1019740074AF02F58062904216D002F58062904204
:1019840014D002F58062904212D002F58062904237
:1019940010D002F5806290420ED002F5806290422F
:1019A4003FF459AF072259E7012257E7022255E7CE
:1019B400032253E7042251E705224FE702B070BD2A
:1019C400704700BF00380140003C0140003802402D
:1019D40000000240074AD36823F4E0631B041B0C95
:1019E400000200F4E060034343F0BF6343F40033B8
:1019F400D360704700ED00E000B5194BDB68C3F31A
:101A04000223C3F1070CBCF1040F28BF4FF0040CF0
:101A140003F1040EBEF1060F18D9033B4FF0FF3E4D
:101A24000EFA0CFC21EA0C0199400EFA03F322EAA7
:101A34000303194300280BDB0901C9B200F160401C
:101A440000F5614080F800135DF804FB0023E5E72E
:101A540000F00F000901C9B2024B1954F4E700BFAA
:101A640000ED00E014ED00E00138B0F1807F0BD20E
:101A74004FF0E0235861054AF02182F8231000203A
:101A8400986107221A6170470120704700ED00E059
:101A940010B504460E4B18784FF47A73B3FBF0F389
:101AA4000C4A1068B0FBF3F0FFF7DEFF68B90F2CA7
:101AB40001D901200AE0002221464FF0FF30FFF750
:101AC4009BFF054B1C60002000E0012010BD00BFFF
:101AD40000000020080000200400002008B50B4B83
:101AE4001A6842F400721A601A6842F480621A603A
:101AF4001A6842F480721A600320FFF76BFF00201B
:101B0400FFF7C6FFFEF76EFE002008BD003C024052
:101B1400034A1168034B1B780B441360704700BFE2
:101B24001801002000000020014B1868704700BF16
:101B34001801002038B50446FFF7F6FF0546B4F156
:101B4400FF3F02D0044B1B781C44FFF7EDFF401B02
:101B5400A042FAD338BD00BF0000002038B50446C7
:101B64000268136923F44053C1680B43136183680B
:101B74000269134342691343C2691A430168CB687B
:101B840023F4164323F00C031343CB600268536918
:101B940023F4407381690B4353610368314A9342D0
:101BA40006D002F58062934202D0FFF725FB01E0E4
:101BB400FFF732FBE369B3F5004F29D00021031886
:101BC40049411B1841F10001C90041EA5371DB008E
:101BD400181863684FEA83024FEA937341F10001D6
:101BE400FEF70EFB204DA5FB00325109642303FBD5
:101BF40011031B013233A5FB03235B0903F0F0023D
:101C040002EB011203F00F03216813448B6038BD0B
:101C14000023021843EB0301121841F10001C9002B
:101C240041EA5271D200101841F100016268921821
:101C34005B41FEF7E5FA0C4DA5FB00325109642324
:101C440003FB1103DB003233A5FB03235B095A00BA
:101C540002F4F87202EB011203F007032168134443
:101C64008B60D4E7001001401F85EB5158B310B5C9
:101C7400044690F83D300BB3242384F83D302268A9
:101C8400D36823F40053D3602046FFF767FF22682C
:101C9400136923F4904313612268536923F02A03E0
:101CA40053612268D36843F40053D3600020206456
:101CB400202384F83D3084F83E3010BD80F83C3059
:101CC400FEF722FED8E7012070470000034AD2F84D
:101CD400883043F47003C2F88830704700ED00E0A8
:101CE400DFF834D00D480E490E4A002302E0D458E0
:101CF400C4500433C4188C42F9D30B4A0B4C002350
:101D040001E013600432A242FBD3FFF7DFFF00F0CF
:101D140011F8FEF72BFD70470000022000000020A0
:101D24000C000020D01D00080C0000201C01002025
:101D3400FEE7000070B50D4D0D4C641BA410002689
:101D4400A64209D10B4D0C4C00F020F8641BA410E2
:101D54000026A64205D170BD55F8043B98470136CC
:101D6400EEE755F8043B98470136F2E7C81D000832
:101D7400C81D0008C81D0008CC1D00080244034605
:101D8400934200D1704703F8011BF9E7F8B500BF8F
:101D9400F8BC08BC9E467047F8B500BFF8BC08BC48
:041DA4009E467047A0
:101DA8000000000000000000010203040607080903
:081DB800000000000102030419
:081DC00074E4FF7F0100000044
:041DC800E901000825
:041DCC00C501000845
:0C1DD00001000000100000000024F400DE
:0400000508001CE5EE
:00000001FF
